{
  "contractName": "TarsilaNft",
  "abi": [
    {
      "inputs": [
        {
          "internalType": "address",
          "name": "owner",
          "type": "address"
        },
        {
          "internalType": "contract IProxyRegistry",
          "name": "_proxyRegistry",
          "type": "address"
        }
      ],
      "stateMutability": "nonpayable",
      "type": "constructor"
    },
    {
      "anonymous": false,
      "inputs": [
        {
          "indexed": true,
          "internalType": "address",
          "name": "owner",
          "type": "address"
        },
        {
          "indexed": true,
          "internalType": "address",
          "name": "approved",
          "type": "address"
        },
        {
          "indexed": true,
          "internalType": "uint256",
          "name": "tokenId",
          "type": "uint256"
        }
      ],
      "name": "Approval",
      "type": "event"
    },
    {
      "anonymous": false,
      "inputs": [
        {
          "indexed": true,
          "internalType": "address",
          "name": "owner",
          "type": "address"
        },
        {
          "indexed": true,
          "internalType": "address",
          "name": "operator",
          "type": "address"
        },
        {
          "indexed": false,
          "internalType": "bool",
          "name": "approved",
          "type": "bool"
        }
      ],
      "name": "ApprovalForAll",
      "type": "event"
    },
    {
      "anonymous": false,
      "inputs": [
        {
          "indexed": true,
          "internalType": "address",
          "name": "previousOwner",
          "type": "address"
        },
        {
          "indexed": true,
          "internalType": "address",
          "name": "newOwner",
          "type": "address"
        }
      ],
      "name": "OwnershipTransferred",
      "type": "event"
    },
    {
      "anonymous": false,
      "inputs": [
        {
          "indexed": true,
          "internalType": "uint256",
          "name": "tokenId",
          "type": "uint256"
        }
      ],
      "name": "TokenBurned",
      "type": "event"
    },
    {
      "anonymous": false,
      "inputs": [
        {
          "indexed": false,
          "internalType": "uint256[]",
          "name": "tokenIds",
          "type": "uint256[]"
        },
        {
          "indexed": true,
          "internalType": "address",
          "name": "owner",
          "type": "address"
        }
      ],
      "name": "TokensCreated",
      "type": "event"
    },
    {
      "anonymous": false,
      "inputs": [
        {
          "indexed": true,
          "internalType": "address",
          "name": "from",
          "type": "address"
        },
        {
          "indexed": true,
          "internalType": "address",
          "name": "to",
          "type": "address"
        },
        {
          "indexed": true,
          "internalType": "uint256",
          "name": "tokenId",
          "type": "uint256"
        }
      ],
      "name": "Transfer",
      "type": "event"
    },
    {
      "stateMutability": "payable",
      "type": "fallback",
      "payable": true
    },
    {
      "inputs": [
        {
          "internalType": "address",
          "name": "to",
          "type": "address"
        },
        {
          "internalType": "uint256",
          "name": "tokenId",
          "type": "uint256"
        }
      ],
      "name": "approve",
      "outputs": [],
      "stateMutability": "nonpayable",
      "type": "function"
    },
    {
      "inputs": [
        {
          "internalType": "address",
          "name": "owner",
          "type": "address"
        }
      ],
      "name": "balanceOf",
      "outputs": [
        {
          "internalType": "uint256",
          "name": "",
          "type": "uint256"
        }
      ],
      "stateMutability": "view",
      "type": "function",
      "constant": true
    },
    {
      "inputs": [],
      "name": "baseUri",
      "outputs": [
        {
          "internalType": "string",
          "name": "",
          "type": "string"
        }
      ],
      "stateMutability": "view",
      "type": "function",
      "constant": true
    },
    {
      "inputs": [
        {
          "internalType": "uint256",
          "name": "tokenId",
          "type": "uint256"
        }
      ],
      "name": "getApproved",
      "outputs": [
        {
          "internalType": "address",
          "name": "",
          "type": "address"
        }
      ],
      "stateMutability": "view",
      "type": "function",
      "constant": true
    },
    {
      "inputs": [
        {
          "internalType": "uint256",
          "name": "",
          "type": "uint256"
        }
      ],
      "name": "metadataIds",
      "outputs": [
        {
          "internalType": "uint256",
          "name": "",
          "type": "uint256"
        }
      ],
      "stateMutability": "view",
      "type": "function",
      "constant": true
    },
    {
      "inputs": [],
      "name": "mintPrice",
      "outputs": [
        {
          "internalType": "uint256",
          "name": "",
          "type": "uint256"
        }
      ],
      "stateMutability": "view",
      "type": "function",
      "constant": true
    },
    {
      "inputs": [],
      "name": "name",
      "outputs": [
        {
          "internalType": "string",
          "name": "",
          "type": "string"
        }
      ],
      "stateMutability": "view",
      "type": "function",
      "constant": true
    },
    {
      "inputs": [],
      "name": "owner",
      "outputs": [
        {
          "internalType": "address",
          "name": "",
          "type": "address"
        }
      ],
      "stateMutability": "view",
      "type": "function",
      "constant": true
    },
    {
      "inputs": [
        {
          "internalType": "uint256",
          "name": "tokenId",
          "type": "uint256"
        }
      ],
      "name": "ownerOf",
      "outputs": [
        {
          "internalType": "address",
          "name": "",
          "type": "address"
        }
      ],
      "stateMutability": "view",
      "type": "function",
      "constant": true
    },
    {
      "inputs": [],
      "name": "proxyRegistry",
      "outputs": [
        {
          "internalType": "contract IProxyRegistry",
          "name": "",
          "type": "address"
        }
      ],
      "stateMutability": "view",
      "type": "function",
      "constant": true
    },
    {
      "inputs": [],
      "name": "renounceOwnership",
      "outputs": [],
      "stateMutability": "nonpayable",
      "type": "function"
    },
    {
      "inputs": [
        {
          "internalType": "address",
          "name": "from",
          "type": "address"
        },
        {
          "internalType": "address",
          "name": "to",
          "type": "address"
        },
        {
          "internalType": "uint256",
          "name": "tokenId",
          "type": "uint256"
        }
      ],
      "name": "safeTransferFrom",
      "outputs": [],
      "stateMutability": "nonpayable",
      "type": "function"
    },
    {
      "inputs": [
        {
          "internalType": "address",
          "name": "from",
          "type": "address"
        },
        {
          "internalType": "address",
          "name": "to",
          "type": "address"
        },
        {
          "internalType": "uint256",
          "name": "tokenId",
          "type": "uint256"
        },
        {
          "internalType": "bytes",
          "name": "data",
          "type": "bytes"
        }
      ],
      "name": "safeTransferFrom",
      "outputs": [],
      "stateMutability": "nonpayable",
      "type": "function"
    },
    {
      "inputs": [
        {
          "internalType": "address",
          "name": "operator",
          "type": "address"
        },
        {
          "internalType": "bool",
          "name": "approved",
          "type": "bool"
        }
      ],
      "name": "setApprovalForAll",
      "outputs": [],
      "stateMutability": "nonpayable",
      "type": "function"
    },
    {
      "inputs": [
        {
          "internalType": "bytes4",
          "name": "interfaceId",
          "type": "bytes4"
        }
      ],
      "name": "supportsInterface",
      "outputs": [
        {
          "internalType": "bool",
          "name": "",
          "type": "bool"
        }
      ],
      "stateMutability": "view",
      "type": "function",
      "constant": true
    },
    {
      "inputs": [],
      "name": "symbol",
      "outputs": [
        {
          "internalType": "string",
          "name": "",
          "type": "string"
        }
      ],
      "stateMutability": "view",
      "type": "function",
      "constant": true
    },
    {
      "inputs": [
        {
          "internalType": "uint256",
          "name": "index",
          "type": "uint256"
        }
      ],
      "name": "tokenByIndex",
      "outputs": [
        {
          "internalType": "uint256",
          "name": "",
          "type": "uint256"
        }
      ],
      "stateMutability": "view",
      "type": "function",
      "constant": true
    },
    {
      "inputs": [
        {
          "internalType": "address",
          "name": "owner",
          "type": "address"
        },
        {
          "internalType": "uint256",
          "name": "index",
          "type": "uint256"
        }
      ],
      "name": "tokenOfOwnerByIndex",
      "outputs": [
        {
          "internalType": "uint256",
          "name": "",
          "type": "uint256"
        }
      ],
      "stateMutability": "view",
      "type": "function",
      "constant": true
    },
    {
      "inputs": [
        {
          "internalType": "uint256",
          "name": "tokenId",
          "type": "uint256"
        }
      ],
      "name": "tokenURI",
      "outputs": [
        {
          "internalType": "string",
          "name": "",
          "type": "string"
        }
      ],
      "stateMutability": "view",
      "type": "function",
      "constant": true
    },
    {
      "inputs": [],
      "name": "totalSupply",
      "outputs": [
        {
          "internalType": "uint256",
          "name": "",
          "type": "uint256"
        }
      ],
      "stateMutability": "view",
      "type": "function",
      "constant": true
    },
    {
      "inputs": [
        {
          "internalType": "address",
          "name": "from",
          "type": "address"
        },
        {
          "internalType": "address",
          "name": "to",
          "type": "address"
        },
        {
          "internalType": "uint256",
          "name": "tokenId",
          "type": "uint256"
        }
      ],
      "name": "transferFrom",
      "outputs": [],
      "stateMutability": "nonpayable",
      "type": "function"
    },
    {
      "inputs": [
        {
          "internalType": "address",
          "name": "newOwner",
          "type": "address"
        }
      ],
      "name": "transferOwnership",
      "outputs": [],
      "stateMutability": "nonpayable",
      "type": "function"
    },
    {
      "stateMutability": "payable",
      "type": "receive",
      "payable": true
    },
    {
      "inputs": [
        {
          "internalType": "uint256",
          "name": "newMintPrice",
          "type": "uint256"
        }
      ],
      "name": "setMintPrice",
      "outputs": [],
      "stateMutability": "nonpayable",
      "type": "function"
    },
    {
      "inputs": [
        {
          "internalType": "uint256",
          "name": "tokenId",
          "type": "uint256"
        }
      ],
      "name": "burn",
      "outputs": [],
      "stateMutability": "nonpayable",
      "type": "function"
    },
    {
      "inputs": [
        {
          "internalType": "address",
          "name": "target",
          "type": "address"
        },
        {
          "internalType": "uint256[]",
          "name": "ids",
          "type": "uint256[]"
        },
        {
          "internalType": "uint256",
          "name": "quantity",
          "type": "uint256"
        }
      ],
      "name": "mint",
      "outputs": [],
      "stateMutability": "payable",
      "type": "function",
      "payable": true
    },
    {
      "inputs": [
        {
          "internalType": "uint256",
          "name": "tokenId",
          "type": "uint256"
        }
      ],
      "name": "exists",
      "outputs": [
        {
          "internalType": "bool",
          "name": "",
          "type": "bool"
        }
      ],
      "stateMutability": "view",
      "type": "function",
      "constant": true
    },
    {
      "inputs": [
        {
          "internalType": "address",
          "name": "owner",
          "type": "address"
        },
        {
          "internalType": "address",
          "name": "operator",
          "type": "address"
        }
      ],
      "name": "isApprovedForAll",
      "outputs": [
        {
          "internalType": "bool",
          "name": "",
          "type": "bool"
        }
      ],
      "stateMutability": "view",
      "type": "function",
      "constant": true
    },
    {
      "inputs": [
        {
          "internalType": "string",
          "name": "newBaseUri",
          "type": "string"
        }
      ],
      "name": "setBaseUri",
      "outputs": [],
      "stateMutability": "nonpayable",
      "type": "function"
    },
    {
      "inputs": [],
      "name": "contractURI",
      "outputs": [
        {
          "internalType": "string",
          "name": "",
          "type": "string"
        }
      ],
      "stateMutability": "view",
      "type": "function",
      "constant": true
    },
    {
      "inputs": [
        {
          "internalType": "contract IERC20",
          "name": "_tokenContract",
          "type": "address"
        }
      ],
      "name": "withdrawERC20",
      "outputs": [],
      "stateMutability": "nonpayable",
      "type": "function"
    },
    {
      "inputs": [
        {
          "internalType": "address",
          "name": "_wallet",
          "type": "address"
        },
        {
          "internalType": "uint256",
          "name": "amount",
          "type": "uint256"
        }
      ],
      "name": "withdrawETH",
      "outputs": [],
      "stateMutability": "nonpayable",
      "type": "function"
    },
    {
      "inputs": [
        {
          "internalType": "contract IERC721",
          "name": "_tokenContract",
          "type": "address"
        }
      ],
      "name": "approveERC721",
      "outputs": [],
      "stateMutability": "nonpayable",
      "type": "function"
    }
  ],
  "bytecode": "0x610100604052602960a0818152906200294b60c039600c906200002390826200020e565b50600d62000033600c82620002da565b50670429d069189e0000600e553480156200004d57600080fd5b5060405162002974380380620029748339810160408190526200007091620003dc565b6040518060400160405280601281526020017115185c9cda5b184814995a5b5859da5b995960721b8152506040518060400160405280600381526020016254444160e81b815250620000d1620000cb6200011560201b60201c565b62000119565b6001620000df83826200020e565b506002620000ee82826200020e565b50505062000102826200011960201b60201c565b6001600160a01b0316608052506200041b565b3390565b600080546001600160a01b038381166001600160a01b0319831681178455604051919092169283917f8be0079c531659141344cd1fd0a4f28419497f9722a3daafe3b4186f6b6457e09190a35050565b634e487b7160e01b600052604160045260246000fd5b600181811c908216806200019457607f821691505b602082108103620001b557634e487b7160e01b600052602260045260246000fd5b50919050565b601f8211156200020957600081815260208120601f850160051c81016020861015620001e45750805b601f850160051c820191505b818110156200020557828155600101620001f0565b5050505b505050565b81516001600160401b038111156200022a576200022a62000169565b62000242816200023b84546200017f565b84620001bb565b602080601f8311600181146200027a5760008415620002615750858301515b600019600386901b1c1916600185901b17855562000205565b600085815260208120601f198616915b82811015620002ab578886015182559484019460019091019084016200028a565b5085821015620002ca5787850151600019600388901b60f8161c191681555b5050505050600190811b01905550565b818103620002e6575050565b620002f282546200017f565b6001600160401b038111156200030c576200030c62000169565b6200031d816200023b84546200017f565b6000601f8211600181146200035457600083156200033b5750848201545b600019600385901b1c1916600184901b178455620003bc565b600085815260209020601f19841690600086815260209020845b838110156200039057828601548255600195860195909101906020016200036e565b5085831015620003af5781850154600019600388901b60f8161c191681555b50505060018360011b0184555b5050505050565b6001600160a01b0381168114620003d957600080fd5b50565b60008060408385031215620003f057600080fd5b8251620003fd81620003c3565b60208401519092506200041081620003c3565b809150509250929050565b60805161250662000445600039600081816104de01528181610f350152610f8901526125066000f3fe6080604052600436106101cf5760003560e01c806370a08231116100f6578063b50cbd9f1161008f578063e985e9c511610061578063e985e9c514610555578063f2fde38b14610575578063f4a0a52814610595578063f4f3b200146105b557005b8063b50cbd9f146104cc578063b88d4fde14610500578063c87b56dd14610520578063e8a3d4851461054057005b806395d89b41116100c857806395d89b41146104625780639abc832014610477578063a0bcfc7f1461048c578063a22cb465146104ac57005b806370a08231146103fc578063715018a61461041c5780638b162dc1146104315780638da5cb5b1461044457005b806342842e0e116101685780634f558e791161013a5780634f558e79146103865780634f6ccce7146103a65780636352211e146103c65780636817c76c146103e657005b806342842e0e1461030657806342966c681461032657806346195c12146103465780634782f7791461036657005b806318160ddd116101a157806318160ddd1461028757806323b872dd146102a65780632f745c59146102c65780632fa55ac0146102e657005b806301ffc9a7146101d857806306fdde031461020d578063081812fc1461022f578063095ea7b31461026757005b366101d657005b005b3480156101e457600080fd5b506101f86101f3366004611d6d565b6105d5565b60405190151581526020015b60405180910390f35b34801561021957600080fd5b50610222610600565b6040516102049190611dda565b34801561023b57600080fd5b5061024f61024a366004611ded565b610692565b6040516001600160a01b039091168152602001610204565b34801561027357600080fd5b506101d6610282366004611e1b565b6106b9565b34801561029357600080fd5b506009545b604051908152602001610204565b3480156102b257600080fd5b506101d66102c1366004611e47565b6107d3565b3480156102d257600080fd5b506102986102e1366004611e1b565b610804565b3480156102f257600080fd5b50610298610301366004611ded565b61089a565b34801561031257600080fd5b506101d6610321366004611e47565b6108bb565b34801561033257600080fd5b506101d6610341366004611ded565b6108d6565b34801561035257600080fd5b506101d6610361366004611e88565b610915565b34801561037257600080fd5b506101d6610381366004611e1b565b610980565b34801561039257600080fd5b506101f86103a1366004611ded565b610a47565b3480156103b257600080fd5b506102986103c1366004611ded565b610a66565b3480156103d257600080fd5b5061024f6103e1366004611ded565b610af9565b3480156103f257600080fd5b50610298600e5481565b34801561040857600080fd5b50610298610417366004611e88565b610b59565b34801561042857600080fd5b506101d6610bdf565b6101d661043f366004611ea5565b610bf3565b34801561045057600080fd5b506000546001600160a01b031661024f565b34801561046e57600080fd5b50610222610dc3565b34801561048357600080fd5b50610222610dd2565b34801561049857600080fd5b506101d66104a7366004611fbf565b610e60565b3480156104b857600080fd5b506101d66104c7366004612016565b610e78565b3480156104d857600080fd5b5061024f7f000000000000000000000000000000000000000000000000000000000000000081565b34801561050c57600080fd5b506101d661051b36600461204f565b610e83565b34801561052c57600080fd5b5061022261053b366004611ded565b610ebb565b34801561054c57600080fd5b50610222610f22565b34801561056157600080fd5b506101f86105703660046120cf565b610f31565b34801561058157600080fd5b506101d6610590366004611e88565b61103c565b3480156105a157600080fd5b506101d66105b0366004611ded565b6110b5565b3480156105c157600080fd5b506101d66105d0366004611e88565b6110c2565b60006001600160e01b0319821663780e9d6360e01b14806105fa57506105fa826111ee565b92915050565b60606001805461060f906120fd565b80601f016020809104026020016040519081016040528092919081815260200182805461063b906120fd565b80156106885780601f1061065d57610100808354040283529160200191610688565b820191906000526020600020905b81548152906001019060200180831161066b57829003601f168201915b5050505050905090565b600061069d8261123e565b506000908152600560205260409020546001600160a01b031690565b60006106c482610af9565b9050806001600160a01b0316836001600160a01b0316036107365760405162461bcd60e51b815260206004820152602160248201527f4552433732313a20617070726f76616c20746f2063757272656e74206f776e656044820152603960f91b60648201526084015b60405180910390fd5b336001600160a01b038216148061075257506107528133610f31565b6107c45760405162461bcd60e51b815260206004820152603e60248201527f4552433732313a20617070726f76652063616c6c6572206973206e6f7420746f60448201527f6b656e206f776e6572206e6f7220617070726f76656420666f7220616c6c0000606482015260840161072d565b6107ce838361129d565b505050565b6107dd338261130b565b6107f95760405162461bcd60e51b815260040161072d90612137565b6107ce83838361136a565b600061080f83610b59565b82106108715760405162461bcd60e51b815260206004820152602b60248201527f455243373231456e756d657261626c653a206f776e657220696e646578206f7560448201526a74206f6620626f756e647360a81b606482015260840161072d565b506001600160a01b03919091166000908152600760209081526040808320938352929052205490565b600b81815481106108aa57600080fd5b600091825260209091200154905081565b6107ce83838360405180602001604052806000815250610e83565b6108de611511565b6108e78161156b565b60405181907f0c526103b8f47af5516191d0c89a598755bd00faa211a3cb52e4c2cc782f7fe290600090a250565b61091d611511565b60405163a22cb46560e01b8152336004820152600160248201526001600160a01b0382169063a22cb46590604401600060405180830381600087803b15801561096557600080fd5b505af1158015610979573d6000803e3d6000fd5b5050505050565b610988611511565b47806109cc5760405162461bcd60e51b81526020600482015260136024820152724e6f7468696e6720746f20776974686472617760681b604482015260640161072d565b81811015610a0f5760405162461bcd60e51b815260206004820152601060248201526f4e6f7420656e6f7567682066756e647360801b604482015260640161072d565b60405183906001600160a01b0382169084156108fc029085906000818181858888f19350505050158015610979573d6000803e3d6000fd5b6000818152600360205260408120546001600160a01b031615156105fa565b6000610a7160095490565b8210610ad45760405162461bcd60e51b815260206004820152602c60248201527f455243373231456e756d657261626c653a20676c6f62616c20696e646578206f60448201526b7574206f6620626f756e647360a01b606482015260840161072d565b60098281548110610ae757610ae7612185565b90600052602060002001549050919050565b6000818152600360205260408120546001600160a01b0316806105fa5760405162461bcd60e51b8152602060048201526018602482015277115490cdcc8c4e881a5b9d985b1a59081d1bdad95b88125160421b604482015260640161072d565b60006001600160a01b038216610bc35760405162461bcd60e51b815260206004820152602960248201527f4552433732313a2061646472657373207a65726f206973206e6f7420612076616044820152683634b21037bbb732b960b91b606482015260840161072d565b506001600160a01b031660009081526004602052604090205490565b610be7611511565b610bf16000611612565b565b60008111610c3a5760405162461bcd60e51b815260206004820152601460248201527305175616e74697479206d757374206265203e20360641b604482015260640161072d565b81610c7a5760405162461bcd60e51b815260206004820152601060248201526f125b9d985b1a59081a591cc81b1a5cdd60821b604482015260640161072d565b6000546001600160a01b03163314610ce057600e54610c9a9083906121b1565b341015610ce05760405162461bcd60e51b81526020600482015260146024820152732737ba1032b737bab3b41032ba341039b2b73a1760611b604482015260640161072d565b60e182610cec60095490565b610cf691906121c8565b1115610d3a5760405162461bcd60e51b8152602060048201526013602482015272125b9d985b1a59081d1bdad95b8818dbdd5b9d606a1b604482015260640161072d565b60005b82811015610d7957610d6785858584818110610d5b57610d5b612185565b90506020020135611662565b80610d71816121db565b915050610d3d565b50836001600160a01b03167f253bd900a70e499d621718415e001c63e8657581a847e8cdbb6fe37228e6d7598484604051610db59291906121f4565b60405180910390a250505050565b60606002805461060f906120fd565b600c8054610ddf906120fd565b80601f0160208091040260200160405190810160405280929190818152602001828054610e0b906120fd565b8015610e585780601f10610e2d57610100808354040283529160200191610e58565b820191906000526020600020905b815481529060010190602001808311610e3b57829003601f168201915b505050505081565b610e68611511565b600c610e74828261227b565b5050565b610e7433838361167c565b610e8d338361130b565b610ea95760405162461bcd60e51b815260040161072d90612137565b610eb58484848461174a565b50505050565b6060610ec68261123e565b6000610ed061177d565b90506000815111610ef05760405180602001604052806000815250610f1b565b80610efa8461178c565b604051602001610f0b92919061233b565b6040516020818303038152906040525b9392505050565b6060600d805461060f906120fd565b60007f00000000000000000000000000000000000000000000000000000000000000006001600160a01b031615801590611001575060405163c455279160e01b81526001600160a01b038481166004830152808416917f00000000000000000000000000000000000000000000000000000000000000009091169063c455279190602401602060405180830381865afa158015610fd2573d6000803e3d6000fd5b505050506040513d601f19601f82011682018060405250810190610ff6919061236a565b6001600160a01b0316145b1561100e575060016105fa565b6001600160a01b0380841660009081526006602090815260408083209386168352929052205460ff16610f1b565b611044611511565b6001600160a01b0381166110a95760405162461bcd60e51b815260206004820152602660248201527f4f776e61626c653a206e6577206f776e657220697320746865207a65726f206160448201526564647265737360d01b606482015260840161072d565b6110b281611612565b50565b6110bd611511565b600e55565b6110ca611511565b6040516370a0823160e01b81523060048201526000906001600160a01b038316906370a0823190602401602060405180830381865afa158015611111573d6000803e3d6000fd5b505050506040513d601f19601f820116820180604052508101906111359190612387565b90506000811161117d5760405162461bcd60e51b81526020600482015260136024820152724e6f7468696e6720746f20776974686472617760681b604482015260640161072d565b60405163a9059cbb60e01b8152336004820152602481018290526001600160a01b0383169063a9059cbb906044016020604051808303816000875af11580156111ca573d6000803e3d6000fd5b505050506040513d601f19601f820116820180604052508101906107ce91906123a0565b60006001600160e01b031982166380ac58cd60e01b148061121f57506001600160e01b03198216635b5e139f60e01b145b806105fa57506301ffc9a760e01b6001600160e01b03198316146105fa565b6000818152600360205260409020546001600160a01b03166110b25760405162461bcd60e51b8152602060048201526018602482015277115490cdcc8c4e881a5b9d985b1a59081d1bdad95b88125160421b604482015260640161072d565b600081815260056020526040902080546001600160a01b0319166001600160a01b03841690811790915581906112d282610af9565b6001600160a01b03167f8c5be1e5ebec7d5bd14f71427d1e84f3dd0314c0f7b2291e5b200ac8c7c3b92560405160405180910390a45050565b60008061131783610af9565b9050806001600160a01b0316846001600160a01b0316148061133e575061133e8185610f31565b806113625750836001600160a01b031661135784610692565b6001600160a01b0316145b949350505050565b826001600160a01b031661137d82610af9565b6001600160a01b0316146113e15760405162461bcd60e51b815260206004820152602560248201527f4552433732313a207472616e736665722066726f6d20696e636f72726563742060448201526437bbb732b960d91b606482015260840161072d565b6001600160a01b0382166114435760405162461bcd60e51b8152602060048201526024808201527f4552433732313a207472616e7366657220746f20746865207a65726f206164646044820152637265737360e01b606482015260840161072d565b61144e83838361188d565b61145960008261129d565b6001600160a01b03831660009081526004602052604081208054600192906114829084906123bd565b90915550506001600160a01b03821660009081526004602052604081208054600192906114b09084906121c8565b909155505060008181526003602052604080822080546001600160a01b0319166001600160a01b0386811691821790925591518493918716917fddf252ad1be2c89b69c2b068fc378daa952ba7f163c4a11628f55a4df523b3ef91a4505050565b6000546001600160a01b03163314610bf15760405162461bcd60e51b815260206004820181905260248201527f4f776e61626c653a2063616c6c6572206973206e6f7420746865206f776e6572604482015260640161072d565b600061157682610af9565b90506115848160008461188d565b61158f60008361129d565b6001600160a01b03811660009081526004602052604081208054600192906115b89084906123bd565b909155505060008281526003602052604080822080546001600160a01b0319169055518391906001600160a01b038416907fddf252ad1be2c89b69c2b068fc378daa952ba7f163c4a11628f55a4df523b3ef908390a45050565b600080546001600160a01b038381166001600160a01b0319831681178455604051919092169283917f8be0079c531659141344cd1fd0a4f28419497f9722a3daafe3b4186f6b6457e09190a35050565b610e74828260405180602001604052806000815250611945565b816001600160a01b0316836001600160a01b0316036116dd5760405162461bcd60e51b815260206004820152601960248201527f4552433732313a20617070726f766520746f2063616c6c657200000000000000604482015260640161072d565b6001600160a01b03838116600081815260066020908152604080832094871680845294825291829020805460ff191686151590811790915591519182527f17307eab39ab6107e8899845ad3d59bd9653f200f220920489ca2b5937696c31910160405180910390a3505050565b61175584848461136a565b61176184848484611978565b610eb55760405162461bcd60e51b815260040161072d906123d0565b6060600c805461060f906120fd565b6060816000036117b35750506040805180820190915260018152600360fc1b602082015290565b8160005b81156117dd57806117c7816121db565b91506117d69050600a83612438565b91506117b7565b60008167ffffffffffffffff8111156117f8576117f8611f33565b6040519080825280601f01601f191660200182016040528015611822576020820181803683370190505b5090505b8415611362576118376001836123bd565b9150611844600a8661244c565b61184f9060306121c8565b60f81b81838151811061186457611864612185565b60200101906001600160f81b031916908160001a905350611886600a86612438565b9450611826565b6001600160a01b0383166118e8576118e381600980546000838152600a60205260408120829055600182018355919091527f6e1540171b6c0c960b71a7020d9f60077f6af931a8bbf590da0223dacf75c7af0155565b61190b565b816001600160a01b0316836001600160a01b03161461190b5761190b8382611a79565b6001600160a01b038216611922576107ce81611b16565b826001600160a01b0316826001600160a01b0316146107ce576107ce8282611bc5565b61194f8383611c09565b61195c6000848484611978565b6107ce5760405162461bcd60e51b815260040161072d906123d0565b60006001600160a01b0384163b15611a6e57604051630a85bd0160e11b81526001600160a01b0385169063150b7a02906119bc903390899088908890600401612460565b6020604051808303816000875af19250505080156119f7575060408051601f3d908101601f191682019092526119f49181019061249d565b60015b611a54573d808015611a25576040519150601f19603f3d011682016040523d82523d6000602084013e611a2a565b606091505b508051600003611a4c5760405162461bcd60e51b815260040161072d906123d0565b805181602001fd5b6001600160e01b031916630a85bd0160e11b149050611362565b506001949350505050565b60006001611a8684610b59565b611a9091906123bd565b600083815260086020526040902054909150808214611ae3576001600160a01b03841660009081526007602090815260408083208584528252808320548484528184208190558352600890915290208190555b5060009182526008602090815260408084208490556001600160a01b039094168352600781528383209183525290812055565b600954600090611b28906001906123bd565b6000838152600a602052604081205460098054939450909284908110611b5057611b50612185565b906000526020600020015490508060098381548110611b7157611b71612185565b6000918252602080832090910192909255828152600a90915260408082208490558582528120556009805480611ba957611ba96124ba565b6001900381819060005260206000200160009055905550505050565b6000611bd083610b59565b6001600160a01b039093166000908152600760209081526040808320868452825280832085905593825260089052919091209190915550565b6001600160a01b038216611c5f5760405162461bcd60e51b815260206004820181905260248201527f4552433732313a206d696e7420746f20746865207a65726f2061646472657373604482015260640161072d565b6000818152600360205260409020546001600160a01b031615611cc45760405162461bcd60e51b815260206004820152601c60248201527f4552433732313a20746f6b656e20616c7265616479206d696e74656400000000604482015260640161072d565b611cd06000838361188d565b6001600160a01b0382166000908152600460205260408120805460019290611cf99084906121c8565b909155505060008181526003602052604080822080546001600160a01b0319166001600160a01b03861690811790915590518392907fddf252ad1be2c89b69c2b068fc378daa952ba7f163c4a11628f55a4df523b3ef908290a45050565b6001600160e01b0319811681146110b257600080fd5b600060208284031215611d7f57600080fd5b8135610f1b81611d57565b60005b83811015611da5578181015183820152602001611d8d565b50506000910152565b60008151808452611dc6816020860160208601611d8a565b601f01601f19169290920160200192915050565b602081526000610f1b6020830184611dae565b600060208284031215611dff57600080fd5b5035919050565b6001600160a01b03811681146110b257600080fd5b60008060408385031215611e2e57600080fd5b8235611e3981611e06565b946020939093013593505050565b600080600060608486031215611e5c57600080fd5b8335611e6781611e06565b92506020840135611e7781611e06565b929592945050506040919091013590565b600060208284031215611e9a57600080fd5b8135610f1b81611e06565b60008060008060608587031215611ebb57600080fd5b8435611ec681611e06565b9350602085013567ffffffffffffffff80821115611ee357600080fd5b818701915087601f830112611ef757600080fd5b813581811115611f0657600080fd5b8860208260051b8501011115611f1b57600080fd5b95986020929092019750949560400135945092505050565b634e487b7160e01b600052604160045260246000fd5b600067ffffffffffffffff80841115611f6457611f64611f33565b604051601f8501601f19908116603f01168101908282118183101715611f8c57611f8c611f33565b81604052809350858152868686011115611fa557600080fd5b858560208301376000602087830101525050509392505050565b600060208284031215611fd157600080fd5b813567ffffffffffffffff811115611fe857600080fd5b8201601f81018413611ff957600080fd5b61136284823560208401611f49565b80151581146110b257600080fd5b6000806040838503121561202957600080fd5b823561203481611e06565b9150602083013561204481612008565b809150509250929050565b6000806000806080858703121561206557600080fd5b843561207081611e06565b9350602085013561208081611e06565b925060408501359150606085013567ffffffffffffffff8111156120a357600080fd5b8501601f810187136120b457600080fd5b6120c387823560208401611f49565b91505092959194509250565b600080604083850312156120e257600080fd5b82356120ed81611e06565b9150602083013561204481611e06565b600181811c9082168061211157607f821691505b60208210810361213157634e487b7160e01b600052602260045260246000fd5b50919050565b6020808252602e908201527f4552433732313a2063616c6c6572206973206e6f7420746f6b656e206f776e6560408201526d1c881b9bdc88185c1c1c9bdd995960921b606082015260800190565b634e487b7160e01b600052603260045260246000fd5b634e487b7160e01b600052601160045260246000fd5b80820281158282048414176105fa576105fa61219b565b808201808211156105fa576105fa61219b565b6000600182016121ed576121ed61219b565b5060010190565b6020808252810182905260006001600160fb1b0383111561221457600080fd5b8260051b80856040850137919091016040019392505050565b601f8211156107ce57600081815260208120601f850160051c810160208610156122545750805b601f850160051c820191505b8181101561227357828155600101612260565b505050505050565b815167ffffffffffffffff81111561229557612295611f33565b6122a9816122a384546120fd565b8461222d565b602080601f8311600181146122de57600084156122c65750858301515b600019600386901b1c1916600185901b178555612273565b600085815260208120601f198616915b8281101561230d578886015182559484019460019091019084016122ee565b508582101561232b5787850151600019600388901b60f8161c191681555b5050505050600190811b01905550565b6000835161234d818460208801611d8a565b835190830190612361818360208801611d8a565b01949350505050565b60006020828403121561237c57600080fd5b8151610f1b81611e06565b60006020828403121561239957600080fd5b5051919050565b6000602082840312156123b257600080fd5b8151610f1b81612008565b818103818111156105fa576105fa61219b565b60208082526032908201527f4552433732313a207472616e7366657220746f206e6f6e20455243373231526560408201527131b2b4bb32b91034b6b83632b6b2b73a32b960711b606082015260800190565b634e487b7160e01b600052601260045260246000fd5b60008261244757612447612422565b500490565b60008261245b5761245b612422565b500690565b6001600160a01b038581168252841660208201526040810183905260806060820181905260009061249390830184611dae565b9695505050505050565b6000602082840312156124af57600080fd5b8151610f1b81611d57565b634e487b7160e01b600052603160045260246000fdfea2646970667358221220920e34c4bb415e00e5dff0f0d84e4ffedd317dd9d408afdef1e43a38f2decc4d64736f6c6343000811003368747470733a2f2f6170692e7a6569746c732e696f2f74617273696c612f766172696174696f6e732f",
  "immutableReferences": {
    "2207": [
      {
        "length": 32,
        "start": 1246
      },
      {
        "length": 32,
        "start": 3893
      },
      {
        "length": 32,
        "start": 3977
      }
    ]
  },
  "source": "// SPDX-License-Identifier: MIT\n\npragma solidity 0.8.17;\n\nimport \"@openzeppelin/contracts/access/Ownable.sol\";\nimport \"@openzeppelin/contracts/token/ERC721/extensions/ERC721Enumerable.sol\";\nimport \"@openzeppelin/contracts/token/ERC20/IERC20.sol\";\nimport \"@openzeppelin/contracts/token/ERC721/IERC721.sol\";\nimport \"@openzeppelin/contracts/utils/Strings.sol\";\nimport { IProxyRegistry } from \"./IProxyRegistry.sol\";\n\n\ncontract TarsilaNft is Ownable, ERC721Enumerable {\n    using Strings for uint256;\n\n    uint256[] public metadataIds;\n    string public baseUri = \"https://api.zeitls.io/tarsila/variations/\";\n    string _contractURI = baseUri;\n    uint256 public mintPrice = 0.3 ether;\n\n    IProxyRegistry public immutable proxyRegistry;\n\n    event TokensCreated(uint256[] tokenIds, address indexed owner);\n    event TokenBurned(uint256 indexed tokenId);\n\n    constructor(address owner, IProxyRegistry _proxyRegistry) ERC721(\"Tarsila Reimagined\", \"TDA\") {\n        _transferOwnership(owner);\n        proxyRegistry = _proxyRegistry;\n    }\n\n    function setMintPrice(uint256 newMintPrice) external onlyOwner {\n        mintPrice = newMintPrice;\n    }\n\n    function burn(uint256 tokenId) external onlyOwner {\n        _burn(tokenId);\n        emit TokenBurned(tokenId);\n    }\n\n    function mint(address target, uint256[] calldata ids, uint256 quantity) payable external {\n        require(quantity > 0, \"Quantity must be > 0\");\n        require(ids.length > 0, \"Invalid ids list\");\n        if (owner() != _msgSender()) {\n            require(msg.value >= mintPrice * ids.length, \"Not enough eth sent.\");\n        }\n        require(totalSupply() + ids.length <= 225, \"Invalid token count\");\n        for (uint i = 0; i < ids.length; i++) {\n            _safeMint(target, ids[i]);\n        }\n        emit TokensCreated(ids, target);\n    }\n\n    function exists(uint tokenId) public view returns (bool) {\n        return _exists(tokenId);\n    }\n\n    function isApprovedForAll(address owner, address operator) public view override(IERC721, ERC721) returns (bool) {\n        // Whitelist OpenSea proxy contract for easy trading.\n        if (address(proxyRegistry) != address(0x0) && proxyRegistry.proxies(owner) == operator) {\n            return true;\n        }\n        return super.isApprovedForAll(owner, operator);\n    }\n\n    function _baseURI() internal view override returns (string memory) {\n        return baseUri;\n    }\n\n    function setBaseUri(string memory newBaseUri) external onlyOwner {\n        baseUri = newBaseUri;\n    }\n\n    function contractURI() public view returns (string memory) {\n        return _contractURI;\n    }\n\n    function withdrawERC20(IERC20 _tokenContract) external onlyOwner {\n        uint256 balance = _tokenContract.balanceOf(address(this));\n        require(balance > 0, \"Nothing to withdraw\");\n        _tokenContract.transfer(msg.sender, balance);\n    }\n\n    function withdrawETH(address _wallet, uint256 amount) external onlyOwner {\n        uint256 balance = address(this).balance;\n        require(balance > 0, \"Nothing to withdraw\");\n        require(balance >= amount, \"Not enough funds\");\n        address payable to = payable(_wallet);\n        to.transfer(amount);\n    }\n\n    function approveERC721(IERC721 _tokenContract) external onlyOwner {\n        _tokenContract.setApprovalForAll(msg.sender, true);\n    }\n\n    fallback() external payable {}\n\n    receive() external payable {}\n}",
  "sourcePath": "C:\\P\\zeitls-tarsila-contract\\contracts\\TarsilaNft.sol",
  "compiler": {
    "name": "solc",
    "version": "0.8.17+commit.8df45f5f.Emscripten.clang"
  },
  "schemaVersion": "3.4.16",
  "updatedAt": "2024-01-12T12:17:05.270Z",
  "networkType": "ethereum",
  "devdoc": {
    "kind": "dev",
    "methods": {
      "approve(address,uint256)": {
        "details": "See {IERC721-approve}."
      },
      "balanceOf(address)": {
        "details": "See {IERC721-balanceOf}."
      },
      "getApproved(uint256)": {
        "details": "See {IERC721-getApproved}."
      },
      "name()": {
        "details": "See {IERC721Metadata-name}."
      },
      "owner()": {
        "details": "Returns the address of the current owner."
      },
      "ownerOf(uint256)": {
        "details": "See {IERC721-ownerOf}."
      },
      "renounceOwnership()": {
        "details": "Leaves the contract without owner. It will not be possible to call `onlyOwner` functions anymore. Can only be called by the current owner. NOTE: Renouncing ownership will leave the contract without an owner, thereby removing any functionality that is only available to the owner."
      },
      "safeTransferFrom(address,address,uint256)": {
        "details": "See {IERC721-safeTransferFrom}."
      },
      "safeTransferFrom(address,address,uint256,bytes)": {
        "details": "See {IERC721-safeTransferFrom}."
      },
      "setApprovalForAll(address,bool)": {
        "details": "See {IERC721-setApprovalForAll}."
      },
      "supportsInterface(bytes4)": {
        "details": "See {IERC165-supportsInterface}."
      },
      "symbol()": {
        "details": "See {IERC721Metadata-symbol}."
      },
      "tokenByIndex(uint256)": {
        "details": "See {IERC721Enumerable-tokenByIndex}."
      },
      "tokenOfOwnerByIndex(address,uint256)": {
        "details": "See {IERC721Enumerable-tokenOfOwnerByIndex}."
      },
      "tokenURI(uint256)": {
        "details": "See {IERC721Metadata-tokenURI}."
      },
      "totalSupply()": {
        "details": "See {IERC721Enumerable-totalSupply}."
      },
      "transferFrom(address,address,uint256)": {
        "details": "See {IERC721-transferFrom}."
      },
      "transferOwnership(address)": {
        "details": "Transfers ownership of the contract to a new account (`newOwner`). Can only be called by the current owner."
      }
    },
    "version": 1
  },
  "userdoc": {
    "kind": "user",
    "methods": {},
    "version": 1
  }
}